{
  "contractName": "Evidencable",
  "abi": [
    {
      "constant": false,
      "inputs": [],
      "name": "renounceOwnership",
      "outputs": [],
      "payable": false,
      "stateMutability": "nonpayable",
      "type": "function"
    },
    {
      "constant": true,
      "inputs": [],
      "name": "owner",
      "outputs": [
        {
          "name": "",
          "type": "address"
        }
      ],
      "payable": false,
      "stateMutability": "view",
      "type": "function"
    },
    {
      "constant": true,
      "inputs": [],
      "name": "isOwner",
      "outputs": [
        {
          "name": "",
          "type": "bool"
        }
      ],
      "payable": false,
      "stateMutability": "view",
      "type": "function"
    },
    {
      "constant": false,
      "inputs": [
        {
          "name": "newOwner",
          "type": "address"
        }
      ],
      "name": "transferOwnership",
      "outputs": [],
      "payable": false,
      "stateMutability": "nonpayable",
      "type": "function"
    },
    {
      "anonymous": false,
      "inputs": [
        {
          "indexed": true,
          "name": "previousOwner",
          "type": "address"
        },
        {
          "indexed": true,
          "name": "newOwner",
          "type": "address"
        }
      ],
      "name": "OwnershipTransferred",
      "type": "event"
    },
    {
      "constant": true,
      "inputs": [
        {
          "name": "hash",
          "type": "string"
        }
      ],
      "name": "getEvidenceCount",
      "outputs": [
        {
          "name": "",
          "type": "uint8"
        }
      ],
      "payable": false,
      "stateMutability": "view",
      "type": "function"
    },
    {
      "constant": false,
      "inputs": [
        {
          "name": "hash",
          "type": "string"
        }
      ],
      "name": "addEvidence",
      "outputs": [],
      "payable": false,
      "stateMutability": "nonpayable",
      "type": "function"
    },
    {
      "constant": false,
      "inputs": [
        {
          "name": "provider",
          "type": "address"
        }
      ],
      "name": "addEvidenceProvider",
      "outputs": [],
      "payable": false,
      "stateMutability": "nonpayable",
      "type": "function"
    }
  ],
  "bytecode": "0x6080604081905260008054600160a060020a0319163317808255600160a060020a0316917f8be0079c531659141344cd1fd0a4f28419497f9722a3daafe3b4186f6b6457e0908290a361061f806100576000396000f3fe608060405234801561001057600080fd5b506004361061009a576000357c010000000000000000000000000000000000000000000000000000000090048063715018a611610078578063715018a6146102295780638da5cb5b146102315780638f32d59b14610255578063f2fde38b146102715761009a565b8063144b763a1461009f57806351a94a5f146100c7578063646986fb1461016d575b600080fd5b6100c5600480360360208110156100b557600080fd5b5035600160a060020a0316610297565b005b6100c5600480360360208110156100dd57600080fd5b8101906020810181356401000000008111156100f857600080fd5b82018360208201111561010a57600080fd5b8035906020019184600183028401116401000000008311171561012c57600080fd5b91908080601f0160208091040260200160405190810160405280939291908181526020018383808284376000920191909152509295506102d1945050505050565b6102136004803603602081101561018357600080fd5b81019060208101813564010000000081111561019e57600080fd5b8201836020820111156101b057600080fd5b803590602001918460018302840111640100000000831117156101d257600080fd5b91908080601f01602080910402602001604051908101604052809392919081815260200183838082843760009201919091525092955061041f945050505050565b6040805160ff9092168252519081900360200190f35b6100c561048a565b6102396104f4565b60408051600160a060020a039092168252519081900360200190f35b61025d610503565b604080519115158252519081900360200190f35b6100c56004803603602081101561028757600080fd5b5035600160a060020a0316610514565b61029f610503565b15156102aa57600080fd5b600160a060020a03166000908152600160208190526040909120805460ff19169091179055565b3360009081526001602052604090205460ff16151561033b576040517f08c379a000000000000000000000000000000000000000000000000000000000815260040180806020018281038252602a8152602001806105ca602a913960400191505060405180910390fd5b6103aa60016002836040518082805190602001908083835b602083106103725780518252601f199092019160209182019101610353565b51815160209384036101000a600019018019909216911617905292019485525060405193849003019092205460ff1692915050610533565b6002826040518082805190602001908083835b602083106103dc5780518252601f1990920191602091820191016103bd565b51815160209384036101000a60001901801990921691161790529201948552506040519384900301909220805460ff191660ff9490941693909317909255505050565b60006002826040518082805190602001908083835b602083106104535780518252601f199092019160209182019101610434565b51815160209384036101000a600019018019909216911617905292019485525060405193849003019092205460ff16949350505050565b610492610503565b151561049d57600080fd5b60008054604051600160a060020a03909116907f8be0079c531659141344cd1fd0a4f28419497f9722a3daafe3b4186f6b6457e0908390a36000805473ffffffffffffffffffffffffffffffffffffffff19169055565b600054600160a060020a031690565b600054600160a060020a0316331490565b61051c610503565b151561052757600080fd5b6105308161054c565b50565b60008282018381101561054557600080fd5b9392505050565b600160a060020a038116151561056157600080fd5b60008054604051600160a060020a03808516939216917f8be0079c531659141344cd1fd0a4f28419497f9722a3daafe3b4186f6b6457e091a36000805473ffffffffffffffffffffffffffffffffffffffff1916600160a060020a039290921691909117905556fee58faae58581e8aeb8e5b7b2e6b3a8e5868ce79a84e8af81e68daee68f90e4be9be88085e8b083e794a8a165627a7a7230582098cf977ff3589b86f9fe82a93d8237c6fd40c69c19362aadb571ce131ed178e80029",
  "source": "pragma solidity >=0.4.21 <0.6.0;\n\nimport \"openzeppelin-solidity/contracts/math/SafeMath.sol\";\nimport \"openzeppelin-solidity/contracts/ownership/Ownable.sol\";\n\n\n/// @title 用于实现支持证据上传功能的库\n/// @author Yu Zhang\ncontract Evidencable is Ownable {\n    /// @dev SafeMath库用于避免整数上溢和下溢问题\n    using SafeMath for uint8;\n\n    mapping(address => bool) private evidenceProviders;\n    mapping(string => uint8) private evidenceCounts;\n\n    /// @dev 函数修改器用于对函数调用者进行限制，只允许以注册证据的提供者可以进行调用\n    modifier onlyEvidenceProvider() {\n        require(evidenceProviders[msg.sender], \"只允许已注册的证据提供者调用\");\n        _;\n    }\n\n    /// @notice 获取特定作品（哈希值）的证据计数\n    /// @param hash 作品内容哈希值，如IPFS的Base58哈希\n    function getEvidenceCount(string memory hash) public view returns (uint8) {\n        return evidenceCounts[hash];\n    }\n\n    /// @notice 对特定作品（哈希值）添加一个证据计数\n    /// @param hash 作品内容哈希值，如IPFS的Base58哈希\n    function addEvidence(string memory hash) public onlyEvidenceProvider {\n        evidenceCounts[hash] = uint8(evidenceCounts[hash].add(1));\n    }\n\n    /// @notice 添加一个证据提供者，可调用addEvidence(...)方法\n    /// @param provider 提供证据的地址\n    function addEvidenceProvider(address provider) public onlyOwner {\n        evidenceProviders[provider] = true;\n    }\n\n    /// @notice 检查特定作品（哈希值）是否已有注册证据\n    /// @dev 用于检查作品相应证据计数是否为0\n    /// @param hash 作品内容哈希值，如IPFS的Base58哈希\n    function isUnevidenced(string memory hash) internal view returns(bool) {\n        return (evidenceCounts[hash] == 0);\n    }\n}\n",
  "sourcePath": "/Users/hexarthur/Developer/uright/contracts/Evidencable.sol",
  "compiler": {
    "name": "solc",
    "version": "0.5.2+commit.1df8f40c.Emscripten.clang"
  },
  "schemaVersion": "3.0.9",
  "updatedAt": "2021-05-12T13:37:36.009Z",
  "devdoc": {
    "author": "Yu Zhang",
    "methods": {
      "addEvidence(string)": {
        "params": {
          "hash": "作品内容哈希值，如IPFS的Base58哈希"
        }
      },
      "addEvidenceProvider(address)": {
        "params": {
          "provider": "提供证据的地址"
        }
      },
      "getEvidenceCount(string)": {
        "params": {
          "hash": "作品内容哈希值，如IPFS的Base58哈希"
        }
      },
      "isOwner()": {
        "return": "true if `msg.sender` is the owner of the contract."
      },
      "owner()": {
        "return": "the address of the owner."
      },
      "renounceOwnership()": {
        "details": "Allows the current owner to relinquish control of the contract. It will not be possible to call the functions with the `onlyOwner` modifier anymore."
      },
      "transferOwnership(address)": {
        "details": "Allows the current owner to transfer control of the contract to a newOwner.",
        "params": {
          "newOwner": "The address to transfer ownership to."
        }
      }
    },
    "title": "用于实现支持证据上传功能的库"
  },
  "userdoc": {
    "methods": {
      "addEvidence(string)": {
        "notice": "对特定作品（哈希值）添加一个证据计数"
      },
      "addEvidenceProvider(address)": {
        "notice": "添加一个证据提供者，可调用addEvidence(...)方法"
      },
      "getEvidenceCount(string)": {
        "notice": "获取特定作品（哈希值）的证据计数"
      },
      "renounceOwnership()": {
        "notice": "Renouncing ownership will leave the contract without an owner, thereby removing any functionality that is only available to the owner."
      }
    }
  }
}