{
  "contractName": "Manifestations",
  "abi": [
    {
      "constant": false,
      "inputs": [
        {
          "name": "provider",
          "type": "address"
        }
      ],
      "name": "addEvidenceProvider",
      "outputs": [],
      "payable": false,
      "stateMutability": "nonpayable",
      "type": "function"
    },
    {
      "constant": true,
      "inputs": [],
      "name": "timeToExpiry",
      "outputs": [
        {
          "name": "",
          "type": "uint32"
        }
      ],
      "payable": false,
      "stateMutability": "view",
      "type": "function"
    },
    {
      "constant": false,
      "inputs": [],
      "name": "unpause",
      "outputs": [],
      "payable": false,
      "stateMutability": "nonpayable",
      "type": "function"
    },
    {
      "constant": true,
      "inputs": [
        {
          "name": "account",
          "type": "address"
        }
      ],
      "name": "isPauser",
      "outputs": [
        {
          "name": "",
          "type": "bool"
        }
      ],
      "payable": false,
      "stateMutability": "view",
      "type": "function"
    },
    {
      "constant": true,
      "inputs": [],
      "name": "paused",
      "outputs": [
        {
          "name": "",
          "type": "bool"
        }
      ],
      "payable": false,
      "stateMutability": "view",
      "type": "function"
    },
    {
      "constant": true,
      "inputs": [
        {
          "name": "hash",
          "type": "string"
        }
      ],
      "name": "getEvidenceCount",
      "outputs": [
        {
          "name": "",
          "type": "uint8"
        }
      ],
      "payable": false,
      "stateMutability": "view",
      "type": "function"
    },
    {
      "constant": false,
      "inputs": [],
      "name": "renouncePauser",
      "outputs": [],
      "payable": false,
      "stateMutability": "nonpayable",
      "type": "function"
    },
    {
      "constant": false,
      "inputs": [],
      "name": "renounceOwnership",
      "outputs": [],
      "payable": false,
      "stateMutability": "nonpayable",
      "type": "function"
    },
    {
      "constant": false,
      "inputs": [
        {
          "name": "account",
          "type": "address"
        }
      ],
      "name": "addPauser",
      "outputs": [],
      "payable": false,
      "stateMutability": "nonpayable",
      "type": "function"
    },
    {
      "constant": false,
      "inputs": [],
      "name": "pause",
      "outputs": [],
      "payable": false,
      "stateMutability": "nonpayable",
      "type": "function"
    },
    {
      "constant": true,
      "inputs": [],
      "name": "owner",
      "outputs": [
        {
          "name": "",
          "type": "address"
        }
      ],
      "payable": false,
      "stateMutability": "view",
      "type": "function"
    },
    {
      "constant": true,
      "inputs": [],
      "name": "isOwner",
      "outputs": [
        {
          "name": "",
          "type": "bool"
        }
      ],
      "payable": false,
      "stateMutability": "view",
      "type": "function"
    },
    {
      "constant": false,
      "inputs": [
        {
          "name": "newOwner",
          "type": "address"
        }
      ],
      "name": "transferOwnership",
      "outputs": [],
      "payable": false,
      "stateMutability": "nonpayable",
      "type": "function"
    },
    {
      "inputs": [
        {
          "name": "_timeToExpiry",
          "type": "uint32"
        }
      ],
      "payable": false,
      "stateMutability": "nonpayable",
      "type": "constructor"
    },
    {
      "anonymous": false,
      "inputs": [
        {
          "indexed": false,
          "name": "hash",
          "type": "string"
        },
        {
          "indexed": false,
          "name": "title",
          "type": "string"
        },
        {
          "indexed": true,
          "name": "manifester",
          "type": "address"
        }
      ],
      "name": "ManifestEvent",
      "type": "event"
    },
    {
      "anonymous": false,
      "inputs": [
        {
          "indexed": false,
          "name": "evidenceCount",
          "type": "uint8"
        }
      ],
      "name": "AddedEvidence",
      "type": "event"
    },
    {
      "anonymous": false,
      "inputs": [
        {
          "indexed": true,
          "name": "previousOwner",
          "type": "address"
        },
        {
          "indexed": true,
          "name": "newOwner",
          "type": "address"
        }
      ],
      "name": "OwnershipTransferred",
      "type": "event"
    },
    {
      "anonymous": false,
      "inputs": [
        {
          "indexed": false,
          "name": "account",
          "type": "address"
        }
      ],
      "name": "Paused",
      "type": "event"
    },
    {
      "anonymous": false,
      "inputs": [
        {
          "indexed": false,
          "name": "account",
          "type": "address"
        }
      ],
      "name": "Unpaused",
      "type": "event"
    },
    {
      "anonymous": false,
      "inputs": [
        {
          "indexed": true,
          "name": "account",
          "type": "address"
        }
      ],
      "name": "PauserAdded",
      "type": "event"
    },
    {
      "anonymous": false,
      "inputs": [
        {
          "indexed": true,
          "name": "account",
          "type": "address"
        }
      ],
      "name": "PauserRemoved",
      "type": "event"
    },
    {
      "constant": false,
      "inputs": [
        {
          "name": "_timeToExpiry",
          "type": "uint32"
        }
      ],
      "name": "initialize",
      "outputs": [],
      "payable": false,
      "stateMutability": "nonpayable",
      "type": "function"
    },
    {
      "constant": false,
      "inputs": [
        {
          "name": "hash",
          "type": "string"
        },
        {
          "name": "title",
          "type": "string"
        }
      ],
      "name": "manifestAuthorship",
      "outputs": [],
      "payable": false,
      "stateMutability": "nonpayable",
      "type": "function"
    },
    {
      "constant": false,
      "inputs": [
        {
          "name": "hash",
          "type": "string"
        },
        {
          "name": "title",
          "type": "string"
        },
        {
          "name": "additionalAuthors",
          "type": "address[]"
        }
      ],
      "name": "manifestJointAuthorship",
      "outputs": [],
      "payable": false,
      "stateMutability": "nonpayable",
      "type": "function"
    },
    {
      "constant": true,
      "inputs": [
        {
          "name": "hash",
          "type": "string"
        }
      ],
      "name": "getManifestation",
      "outputs": [
        {
          "name": "",
          "type": "string"
        },
        {
          "name": "",
          "type": "address[]"
        },
        {
          "name": "",
          "type": "uint256"
        },
        {
          "name": "",
          "type": "uint256"
        }
      ],
      "payable": false,
      "stateMutability": "view",
      "type": "function"
    },
    {
      "constant": false,
      "inputs": [
        {
          "name": "hash",
          "type": "string"
        }
      ],
      "name": "addEvidence",
      "outputs": [],
      "payable": false,
      "stateMutability": "nonpayable",
      "type": "function"
    }
  ],
  "bytecode": "0x60806040523480156200001157600080fd5b5060405160208062001f9a833981018060405260208110156200003357600080fd5b50516200004933640100000000620000bf810204565b6001805460ff1916905560348054600160a060020a031916331790819055604051600160a060020a0391909116906000907f8be0079c531659141344cd1fd0a4f28419497f9722a3daafe3b4186f6b6457e0908290a36037805463ffffffff191663ffffffff92909216919091179055620001a4565b620000da60008264010000000062001b5c6200011182021704565b604051600160a060020a038216907f6719d08c1888103bea251a4ed56406bd0c3e69723c8a1686e017e7bbe159b6f890600090a250565b600160a060020a03811615156200012757600080fd5b6200013c82826401000000006200016c810204565b156200014757600080fd5b600160a060020a0316600090815260209190915260409020805460ff19166001179055565b6000600160a060020a03821615156200018457600080fd5b50600160a060020a03166000908152602091909152604090205460ff1690565b611de680620001b46000396000f3fe608060405234801561001057600080fd5b5060043610610133576000357c010000000000000000000000000000000000000000000000000000000090048063715018a6116100bf5780638da5cb5b1161008e5780638da5cb5b146104bb5780638f32d59b146104df578063b0594ad5146104e7578063bfbc941214610654578063f2fde38b1461080557610133565b8063715018a61461046257806382dc1ec41461046a5780638456cb59146104905780638d8965bd1461049857610133565b806347fc89b61161010657806347fc89b6146101c357806351a94a5f146102f05780635c975abb14610396578063646986fb1461039e5780636ef8d66d1461045a57610133565b8063144b763a146101385780633e84531c146101605780633f4ba83a1461018157806346fbf68e14610189575b600080fd5b61015e6004803603602081101561014e57600080fd5b5035600160a060020a031661082b565b005b610168610862565b6040805163ffffffff9092168252519081900360200190f35b61015e61086e565b6101af6004803603602081101561019f57600080fd5b5035600160a060020a03166108d2565b604080519115158252519081900360200190f35b61015e600480360360408110156101d957600080fd5b8101906020810181356401000000008111156101f457600080fd5b82018360208201111561020657600080fd5b8035906020019184600183028401116401000000008311171561022857600080fd5b91908080601f016020809104026020016040519081016040528093929190818152602001838380828437600092019190915250929594936020810193503591505064010000000081111561027b57600080fd5b82018360208201111561028d57600080fd5b803590602001918460018302840111640100000000831117156102af57600080fd5b91908080601f0160208091040260200160405190810160405280939291908181526020018383808284376000920191909152509295506108ea945050505050565b61015e6004803603602081101561030657600080fd5b81019060208101813564010000000081111561032157600080fd5b82018360208201111561033357600080fd5b8035906020019184600183028401116401000000008311171561035557600080fd5b91908080601f016020809104026020016040519081016040528093929190818152602001838380828437600092019190915250929550610d50945050505050565b6101af610e1c565b610444600480360360208110156103b457600080fd5b8101906020810181356401000000008111156103cf57600080fd5b8201836020820111156103e157600080fd5b8035906020019184600183028401116401000000008311171561040357600080fd5b91908080601f016020809104026020016040519081016040528093929190818152602001838380828437600092019190915250929550610e26945050505050565b6040805160ff9092168252519081900360200190f35b61015e610e91565b61015e610e9c565b61015e6004803603602081101561048057600080fd5b5035600160a060020a0316610f06565b61015e610f23565b61015e600480360360208110156104ae57600080fd5b503563ffffffff16610f88565b6104c3611063565b60408051600160a060020a039092168252519081900360200190f35b6101af611072565b61058d600480360360208110156104fd57600080fd5b81019060208101813564010000000081111561051857600080fd5b82018360208201111561052a57600080fd5b8035906020019184600183028401116401000000008311171561054c57600080fd5b91908080601f016020809104026020016040519081016040528093929190818152602001838380828437600092019190915250929550611083945050505050565b604051808060200180602001858152602001848152602001838103835287818151815260200191508051906020019080838360005b838110156105da5781810151838201526020016105c2565b50505050905090810190601f1680156106075780820380516001836020036101000a031916815260200191505b508381038252865181528651602091820191808901910280838360005b8381101561063c578181015183820152602001610624565b50505050905001965050505050505060405180910390f35b61015e6004803603606081101561066a57600080fd5b81019060208101813564010000000081111561068557600080fd5b82018360208201111561069757600080fd5b803590602001918460018302840111640100000000831117156106b957600080fd5b91908080601f016020809104026020016040519081016040528093929190818152602001838380828437600092019190915250929594936020810193503591505064010000000081111561070c57600080fd5b82018360208201111561071e57600080fd5b8035906020019184600183028401116401000000008311171561074057600080fd5b91908080601f016020809104026020016040519081016040528093929190818152602001838380828437600092019190915250929594936020810193503591505064010000000081111561079357600080fd5b8201836020820111156107a557600080fd5b803590602001918460208302840111640100000000831117156107c757600080fd5b919080806020026020016040519081016040528093929190818152602001838360200280828437600092019190915250929550611315945050505050565b61015e6004803603602081101561081b57600080fd5b5035600160a060020a03166117b3565b610833611072565b151561083e57600080fd5b600160a060020a03166000908152603560205260409020805460ff19166001179055565b60375463ffffffff1681565b610877336108d2565b151561088257600080fd5b60015460ff16151561089357600080fd5b6001805460ff191690556040805133815290517f5db9ee0a495bf2e6ff9c91a7834c1ba4fdd244a5e8aa4e537bd38aeae4b073aa9181900360200190a1565b60006108e4818363ffffffff6117cf16565b92915050565b818160008151111515610947576040805160e560020a62461bcd02815260206004820152601360248201527f41207469746c6520697320726571756972656400000000000000000000000000604482015290519081900360640190fd5b6038826040518082805190602001908083835b602083106109795780518252601f19909201916020918201910161095a565b51815160209384036101000a6000190180199092169116179052920194855250604051938490030190922060010154159150819050610a2f5750610a1f6038836040518082805190602001908083835b602083106109e85780518252601f1990920191602091820191016109c9565b51815160209384036101000a6000190180199092169116179052920194855250604051938490030190922060020191506118069050565b8015610a2f5750610a2f82611820565b1515610a6f5760405160e560020a62461bcd028152600401808060200182810382526033815260200180611ce26033913960400191505060405180910390fd5b60015460ff1615610a7f57600080fd5b6040805160018082528183019092526060916020808301908038833901905050905033816000815181101515610ab157fe5b90602001906020020190600160a060020a03169081600160a060020a031681525050806038866040518082805190602001908083835b60208310610b065780518252601f199092019160209182019101610ae7565b6001836020036101000a03801982511681845116808217855250505050505090500191505090815260200160405180910390206001019080519060200190610b4f929190611baa565b5050806038836040518082805190602001908083835b60208310610b845780518252601f199092019160209182019101610b65565b51815160209384036101000a60001901801990921691161790529201948552506040519384900381019093208451610bc59591949190910192509050611c1c565b506037546040518351610c409263ffffffff1691603891869190819060208401908083835b60208310610c095780518252601f199092019160209182019101610bea565b51815160209384036101000a600019018019909216911617905292019485525060405193849003019092206002019291505061188c565b33600160a060020a03167f9221287e8a14b313bd740c10367708dd71a6bd842aaf2848fbee7d4fb4ca329c8383604051808060200180602001838103835285818151815260200191508051906020019080838360005b83811015610cae578181015183820152602001610c96565b50505050905090810190601f168015610cdb5780820380516001836020036101000a031916815260200191505b50838103825284518152845160209182019186019080838360005b83811015610d0e578181015183820152602001610cf6565b50505050905090810190601f168015610d3b5780820380516001836020036101000a031916815260200191505b5094505050505060405180910390a250505050565b60006038826040518082805190602001908083835b60208310610d845780518252601f199092019160209182019101610d65565b6001836020036101000a0380198251168184511680821785525050505050509050019150509081526020016040518091039020600001805460018160011615610100020316600290049050111515610e105760405160e560020a62461bcd028152600401808060200182810382526028815260200180611d936028913960400191505060405180910390fd5b610e19816118ac565b50565b60015460ff165b90565b60006036826040518082805190602001908083835b60208310610e5a5780518252601f199092019160209182019101610e3b565b51815160209384036101000a600019018019909216911617905292019485525060405193849003019092205460ff16949350505050565b610e9a336119e3565b565b610ea4611072565b1515610eaf57600080fd5b603454604051600091600160a060020a0316907f8be0079c531659141344cd1fd0a4f28419497f9722a3daafe3b4186f6b6457e0908390a36034805473ffffffffffffffffffffffffffffffffffffffff19169055565b610f0f336108d2565b1515610f1a57600080fd5b610e1981611a2b565b610f2c336108d2565b1515610f3757600080fd5b60015460ff1615610f4757600080fd5b6001805460ff1916811790556040805133815290517f62e78cea01bee320cd4e420270b5ea74000d11b0c9f74754ebdbfc544b05a2589181900360200190a1565b60015462010000900460ff1680610fa25750610fa2611a73565b80610fb55750600154610100900460ff16155b1515610ff55760405160e560020a62461bcd02815260040180806020018281038252602e815260200180611d3f602e913960400191505060405180910390fd5b60015462010000900460ff16158015611025576001805461ff001962ff0000199091166201000017166101001790555b61102e33611a2b565b61103733611a79565b6037805463ffffffff191663ffffffff8416179055801561105f576001805462ff0000191690555b5050565b603454600160a060020a031690565b603454600160a060020a0316331490565b6060806000806038856040518082805190602001908083835b602083106110bb5780518252601f19909201916020918201910161109c565b51815160209384036101000a6000190180199092169116179052920194855250604051938490038101842089519094603894508a9350918291908401908083835b6020831061111b5780518252601f1990920191602091820191016110fc565b6001836020036101000a03801982511681845116808217855250505050505090500191505090815260200160405180910390206001016038876040518082805190602001908083835b602083106111835780518252601f199092019160209182019101611164565b51815160209384036101000a60001901801990921691161790529201948552506040519384900381018420600201548b519094603894508c9350918291908401908083835b602083106111e75780518252601f1990920191602091820191016111c8565b518151600019602094850361010090810a82019283169219939093169190911790925294909201968752604080519788900382018820600301548b54601f6002600183161590980290950116959095049283018290048202880182019052818752929594508893509184019050828280156112a35780601f10611278576101008083540402835291602001916112a3565b820191906000526020600020905b81548152906001019060200180831161128657829003601f168201915b50505050509350828054806020026020016040519081016040528092919081815260200182805480156112ff57602002820191906000526020600020905b8154600160a060020a031681526001909101906020018083116112e1575b5050505050925093509350935093509193509193565b828260008151111515611372576040805160e560020a62461bcd02815260206004820152601360248201527f41207469746c6520697320726571756972656400000000000000000000000000604482015290519081900360640190fd5b6038826040518082805190602001908083835b602083106113a45780518252601f199092019160209182019101611385565b51815160209384036101000a60001901801990921691161790529201948552506040519384900301909220600101541591508190506114225750611412603883604051808280519060200190808383602083106109e85780518252601f1990920191602091820191016109c9565b8015611422575061142282611820565b15156114625760405160e560020a62461bcd028152600401808060200182810382526033815260200180611ce26033913960400191505060405180910390fd5b60015460ff161561147257600080fd5b82516040116114b55760405160e560020a62461bcd028152600401808060200182810382526026815260200180611d6d6026913960400191505060405180910390fd5b606083516001016040519080825280602002602001820160405280156114e5578160200160208202803883390190505b509050338160008151811015156114f857fe5b600160a060020a0390921660209283029091019091015260005b84518160ff16101561156c57848160ff1681518110151561152f57fe5b90602001906020020151828260010160ff1681518110151561154d57fe5b600160a060020a03909216602092830290910190910152600101611512565b50806038876040518082805190602001908083835b602083106115a05780518252601f199092019160209182019101611581565b6001836020036101000a038019825116818451168082178552505050505050905001915050908152602001604051809103902060010190805190602001906115e9929190611baa565b5050806038836040518082805190602001908083835b6020831061161e5780518252601f1990920191602091820191016115ff565b51815160209384036101000a6000190180199092169116179052920194855250604051938490038101909320845161165f9591949190910192509050611c1c565b5060375460405183516116a29263ffffffff16916038918691908190602084019080838360208310610c095780518252601f199092019160209182019101610bea565b33600160a060020a03167f9221287e8a14b313bd740c10367708dd71a6bd842aaf2848fbee7d4fb4ca329c8383604051808060200180602001838103835285818151815260200191508051906020019080838360005b838110156117105781810151838201526020016116f8565b50505050905090810190601f16801561173d5780820380516001836020036101000a031916815260200191505b50838103825284518152845160209182019186019080838360005b83811015611770578181015183820152602001611758565b50505050905090810190601f16801561179d5780820380516001836020036101000a031916815260200191505b5094505050505060405180910390a25050505050565b6117bb611072565b15156117c657600080fd5b610e1981611a79565b6000600160a060020a03821615156117e657600080fd5b50600160a060020a03166000908152602091909152604090205460ff1690565b60008082600101541180156108e457505060010154421190565b60006036826040518082805190602001908083835b602083106118545780518252601f199092019160209182019101611835565b51815160209384036101000a600019018019909216911617905292019485525060405193849003019092205460ff1615949350505050565b428083556118a0908263ffffffff611af716565b82600101819055505050565b3360009081526035602052604090205460ff1615156118ff5760405160e560020a62461bcd02815260040180806020018281038252602a815260200180611d15602a913960400191505060405180910390fd5b61196e60016036836040518082805190602001908083835b602083106119365780518252601f199092019160209182019101611917565b51815160209384036101000a600019018019909216911617905292019485525060405193849003019092205460ff1692915050611af7565b6036826040518082805190602001908083835b602083106119a05780518252601f199092019160209182019101611981565b51815160209384036101000a60001901801990921691161790529201948552506040519384900301909220805460ff191660ff9490941693909317909255505050565b6119f460008263ffffffff611b1016565b604051600160a060020a038216907fcd265ebaf09df2871cc7bd4133404a235ba12eff2041bb89d9c714a2621c7c7e90600090a250565b611a3c60008263ffffffff611b5c16565b604051600160a060020a038216907f6719d08c1888103bea251a4ed56406bd0c3e69723c8a1686e017e7bbe159b6f890600090a250565b303b1590565b600160a060020a0381161515611a8e57600080fd5b603454604051600160a060020a038084169216907f8be0079c531659141344cd1fd0a4f28419497f9722a3daafe3b4186f6b6457e090600090a36034805473ffffffffffffffffffffffffffffffffffffffff1916600160a060020a0392909216919091179055565b600082820183811015611b0957600080fd5b9392505050565b600160a060020a0381161515611b2557600080fd5b611b2f82826117cf565b1515611b3a57600080fd5b600160a060020a0316600090815260209190915260409020805460ff19169055565b600160a060020a0381161515611b7157600080fd5b611b7b82826117cf565b15611b8557600080fd5b600160a060020a0316600090815260209190915260409020805460ff19166001179055565b828054828255906000526020600020908101928215611c0c579160200282015b82811115611c0c578251825473ffffffffffffffffffffffffffffffffffffffff1916600160a060020a03909116178255602090920191600190910190611bca565b50611c18929150611c96565b5090565b828054600181600116156101000203166002900490600052602060002090601f016020900481019282601f10611c5d57805160ff1916838001178555611c8a565b82800160010185558215611c8a579182015b82811115611c8a578251825591602001919060010190611c6f565b50611c18929150611cc7565b610e2391905b80821115611c1857805473ffffffffffffffffffffffffffffffffffffffff19168155600101611c9c565b610e2391905b80821115611c185760008155600101611ccd56fe416c7265616479207265676973746572656420616e64206e6f742065787069726564206f7220776974682065766964656e63654f6e6c7920726567697374657265642065766964656e63652070726f76696465727320616c6c6f776564436f6e747261637420696e7374616e63652068617320616c7265616479206265656e20696e697469616c697a65644a6f696e7420617574686f7273686970206c696d6974656420746f20363420617574686f7273546865206d616e69666573746174696f6e2065766964656e6365642073686f756c64206578697374a165627a7a72305820112ee1f63d3f3e38d6f66b1d0957b97b61223f6b3a9da65e1273484df89f338e0029",
  "source": "pragma solidity >=0.4.21 <0.6.0;\n\nimport \"openzeppelin-solidity/contracts/lifecycle/Pausable.sol\";\nimport \"zos-lib/contracts/Initializable.sol\";\nimport \"zos-lib/contracts/upgradeability/AdminUpgradeabilityProxy.sol\";\nimport \"./ExpirableLib.sol\";\nimport \"./Evidencable.sol\";\n\n/// @title Contract for copyright authorship registration through creations manifestations\n/// @author Roberto Garca (http://rhizomik.net/~roberto/)\ncontract Manifestations is Pausable, Initializable, Evidencable {\n\n    using ExpirableLib for ExpirableLib.TimeAndExpiry;\n\n    struct Manifestation {\n        string title;\n        address[] authors;\n        ExpirableLib.TimeAndExpiry time;\n    }\n\n    uint32 public timeToExpiry;\n    mapping(string => Manifestation) private manifestations;\n\n    event ManifestEvent(string hash, string title, address indexed manifester);\n    event AddedEvidence(uint8 evidenceCount);\n\n    constructor(uint32 _timeToExpiry) public {\n        timeToExpiry = _timeToExpiry;\n    }\n\n    /// @dev To be used when proxied (upgradeability) to initialize proxy storage\n    function initialize(uint32 _timeToExpiry) public initializer {\n        _addPauser(msg.sender);\n        _transferOwnership(msg.sender);\n        timeToExpiry = _timeToExpiry;\n    }\n\n    /// @dev Modifier implementing the common logic for single and joint authorship.\n    /// Checks title and that hash not registered or expired. Then stores title and sets expiry.\n    /// Finally, emits ManifestEvent\n    /// @param hash Hash of the manifestation content, for instance IPFS Base58 Hash\n    /// @param title The title of the manifestation\n    modifier registerIfAvailable(string memory hash, string memory title) {\n        require(bytes(title).length > 0, \"A title is required\");\n        require(manifestations[hash].authors.length == 0 ||\n                (manifestations[hash].time.isExpired() && isUnevidenced(hash)),\n            \"Already registered and not expired or with evidence\");\n        _;\n        manifestations[hash].title = title;\n        manifestations[hash].time.setExpiry(timeToExpiry);\n        emit ManifestEvent(hash, title, msg.sender);\n    }\n\n    /// @notice Register single authorship for `msg.sender` of the manifestation with title `title`\n    /// and hash `hash`. Requires hash not previously registered or expired.\n    /// @dev To be used when there is just one author, which is considered to be the message sender\n    /// @param hash Hash of the manifestation content, for instance IPFS Base58 Hash\n    /// @param title The title of the manifestation\n    function manifestAuthorship(string memory hash, string memory title)\n    public registerIfAvailable(hash, title) whenNotPaused() {\n        address[] memory authors = new address[](1);\n        authors[0] = msg.sender;\n        manifestations[hash].authors = authors;\n    }\n\n    /// @notice Register joint authorship for `msg.sender` plus additional authors\n    /// `additionalAuthors` of the manifestation with title `title` and hash `hash`.\n    /// Requires hash not previously registered or expired and at most 64 authors,\n    /// including the one registering.\n    /// @dev To be used when there are multiple authors\n    /// @param hash Hash of the manifestation content, for instance IPFS Base58 Hash\n    /// @param title The title of the manifestation\n    /// @param additionalAuthors The additional authors,\n    /// including the one registering that becomes the first author\n    function manifestJointAuthorship(string memory hash, string memory title, address[] memory additionalAuthors)\n    public registerIfAvailable(hash, title) whenNotPaused() {\n        require(additionalAuthors.length < 64, \"Joint authorship limited to 64 authors\");\n        address[] memory authors = new address[](additionalAuthors.length + 1);\n        authors[0] = msg.sender;\n        for (uint8 i = 0; i < additionalAuthors.length; i++)\n            authors[i+1] = additionalAuthors[i];\n        manifestations[hash].authors = authors;\n    }\n\n    /// @notice Retrieve the title and authors of the manifestation with content hash `hash`.\n    /// @param hash Hash of the manifestation content, for instance IPFS Base58 Hash\n    /// @return The title and authors of the manifestation\n    function getManifestation(string memory hash) public view\n    returns (string memory, address[] memory, uint256, uint256) {\n        return (manifestations[hash].title,\n                manifestations[hash].authors,\n                manifestations[hash].time.creationTime,\n                manifestations[hash].time.expiryTime);\n    }\n\n    /// @notice Adds an evidence if there is already a manifestation for `hash`.\n    /// @param hash Hash of the manifestation content, for instance IPFS Base58 Hash\n    function addEvidence(string memory hash) public {\n        require(bytes(manifestations[hash].title).length > 0, \"The manifestation evidenced should exist\");\n        super.addEvidence(hash);\n    }\n}\n",
  "sourcePath": "/Users/hexarthur/Developer/uright/contracts/Manifestations.sol",
  "compiler": {
    "name": "solc",
    "version": "0.5.2+commit.1df8f40c.Emscripten.clang"
  },
  "schemaVersion": "3.0.9",
  "updatedAt": "2021-03-13T17:09:04.426Z",
  "devdoc": {
    "author": "Roberto Garca (http://rhizomik.net/~roberto/)",
    "methods": {
      "addEvidence(string)": {
        "params": {
          "hash": "Hash of the manifestation content, for instance IPFS Base58 Hash"
        }
      },
      "addEvidenceProvider(address)": {
        "params": {
          "provider": "The address of a contract providing evidence"
        }
      },
      "getEvidenceCount(string)": {
        "params": {
          "hash": "Hash of the manifestation content, for instance IPFS Base58 Hash"
        }
      },
      "getManifestation(string)": {
        "params": {
          "hash": "Hash of the manifestation content, for instance IPFS Base58 Hash"
        },
        "return": "The title and authors of the manifestation"
      },
      "initialize(uint32)": {
        "details": "To be used when proxied (upgradeability) to initialize proxy storage"
      },
      "isOwner()": {
        "return": "true if `msg.sender` is the owner of the contract."
      },
      "manifestAuthorship(string,string)": {
        "details": "To be used when there is just one author, which is considered to be the message sender",
        "params": {
          "hash": "Hash of the manifestation content, for instance IPFS Base58 Hash",
          "title": "The title of the manifestation"
        }
      },
      "manifestJointAuthorship(string,string,address[])": {
        "details": "To be used when there are multiple authors",
        "params": {
          "additionalAuthors": "The additional authors, including the one registering that becomes the first author",
          "hash": "Hash of the manifestation content, for instance IPFS Base58 Hash",
          "title": "The title of the manifestation"
        }
      },
      "owner()": {
        "return": "the address of the owner."
      },
      "pause()": {
        "details": "called by the owner to pause, triggers stopped state"
      },
      "paused()": {
        "return": "true if the contract is paused, false otherwise."
      },
      "renounceOwnership()": {
        "details": "Allows the current owner to relinquish control of the contract. It will not be possible to call the functions with the `onlyOwner` modifier anymore."
      },
      "transferOwnership(address)": {
        "details": "Allows the current owner to transfer control of the contract to a newOwner.",
        "params": {
          "newOwner": "The address to transfer ownership to."
        }
      },
      "unpause()": {
        "details": "called by the owner to unpause, returns to normal state"
      }
    },
    "title": "Contract for copyright authorship registration through creations manifestations"
  },
  "userdoc": {
    "methods": {
      "addEvidence(string)": {
        "notice": "Adds an evidence if there is already a manifestation for `hash`."
      },
      "addEvidenceProvider(address)": {
        "notice": "Adds an evidence provider `provider` contract that can then call addEvidence(...) to add evidence."
      },
      "getEvidenceCount(string)": {
        "notice": "Get the evidence count for the manifestation with `hash`."
      },
      "getManifestation(string)": {
        "notice": "Retrieve the title and authors of the manifestation with content hash `hash`."
      },
      "manifestAuthorship(string,string)": {
        "notice": "Register single authorship for `msg.sender` of the manifestation with title `title` and hash `hash`. Requires hash not previously registered or expired."
      },
      "manifestJointAuthorship(string,string,address[])": {
        "notice": "Register joint authorship for `msg.sender` plus additional authors `additionalAuthors` of the manifestation with title `title` and hash `hash`. Requires hash not previously registered or expired and at most 64 authors, including the one registering."
      },
      "renounceOwnership()": {
        "notice": "Renouncing ownership will leave the contract without an owner, thereby removing any functionality that is only available to the owner."
      }
    }
  }
}