{
  "contractName": "UploadEvidences",
  "abi": [
    {
      "anonymous": false,
      "inputs": [
        {
          "indexed": true,
          "name": "registry",
          "type": "address"
        },
        {
          "indexed": true,
          "name": "evidencedIdHash",
          "type": "bytes32"
        },
        {
          "indexed": false,
          "name": "evidencedHash",
          "type": "string"
        },
        {
          "indexed": false,
          "name": "evidenceHash",
          "type": "string"
        },
        {
          "indexed": true,
          "name": "evidencer",
          "type": "address"
        }
      ],
      "name": "UploadEvidenceEvent",
      "type": "event"
    },
    {
      "constant": true,
      "inputs": [
        {
          "name": "evidenceHash",
          "type": "string"
        }
      ],
      "name": "getEvidenceExistence",
      "outputs": [
        {
          "name": "",
          "type": "bool"
        }
      ],
      "payable": false,
      "stateMutability": "view",
      "type": "function"
    },
    {
      "constant": false,
      "inputs": [
        {
          "name": "registry",
          "type": "address"
        },
        {
          "name": "evidencedHash",
          "type": "string"
        },
        {
          "name": "evidenceHash",
          "type": "string"
        }
      ],
      "name": "addEvidence",
      "outputs": [],
      "payable": false,
      "stateMutability": "nonpayable",
      "type": "function"
    }
  ],
  "bytecode": "0x608060405234801561001057600080fd5b506106b3806100206000396000f3fe608060405234801561001057600080fd5b5060043610610052577c0100000000000000000000000000000000000000000000000000000000600035046369291ed081146100575780637a079d31146101a3575b600080fd5b6101a16004803603606081101561006d57600080fd5b73ffffffffffffffffffffffffffffffffffffffff82351691908101906040810160208201356401000000008111156100a557600080fd5b8201836020820111156100b757600080fd5b803590602001918460018302840111640100000000831117156100d957600080fd5b91908080601f016020809104026020016040519081016040528093929190818152602001838380828437600092019190915250929594936020810193503591505064010000000081111561012c57600080fd5b82018360208201111561013e57600080fd5b8035906020019184600183028401116401000000008311171561016057600080fd5b91908080601f01602080910402602001604051908101604052809392919081815260200183838082843760009201919091525092955061025d945050505050565b005b610249600480360360208110156101b957600080fd5b8101906020810181356401000000008111156101d457600080fd5b8201836020820111156101e657600080fd5b8035906020019184600183028401116401000000008311171561020857600080fd5b91908080601f0160208091040260200160405190810160405280939291908181526020018383808284376000920191909152509295506105f5945050505050565b604080519115158252519081900360200190f35b6000816040518082805190602001908083835b6020831061028f5780518252601f199092019160209182019101610270565b51815160209384036101000a600019018019909216911617905292019485525060405193849003019092205460ff161591506103189050576040517f08c379a00000000000000000000000000000000000000000000000000000000081526004018080602001828103825260288152602001806106606028913960400191505060405180910390fd5b6040517f51a94a5f00000000000000000000000000000000000000000000000000000000815260206004820181815284516024840152845173ffffffffffffffffffffffffffffffffffffffff8716936351a94a5f9387939283926044019185019080838360005b83811015610398578181015183820152602001610380565b50505050905090810190601f1680156103c55780820380516001836020036101000a031916815260200191505b5092505050600060405180830381600087803b1580156103e457600080fd5b505af11580156103f8573d6000803e3d6000fd5b5050505060016000826040518082805190602001908083835b602083106104305780518252601f199092019160209182019101610411565b51815160209384036101000a60001901801990921691161790529201948552506040519384900381018420805460ff191695151595909517909455505083513392859281019182918401908083835b6020831061049e5780518252601f19909201916020918201910161047f565b6001836020036101000a038019825116818451168082178552505050505050905001915050604051602081830303815290604052805190602001208473ffffffffffffffffffffffffffffffffffffffff167fef770c44903f5442a75715546b206c07d84ab410a5436d70c0e65297caaff3ca8585604051808060200180602001838103835285818151815260200191508051906020019080838360005b8381101561055457818101518382015260200161053c565b50505050905090810190601f1680156105815780820380516001836020036101000a031916815260200191505b50838103825284518152845160209182019186019080838360005b838110156105b457818101518382015260200161059c565b50505050905090810190601f1680156105e15780820380516001836020036101000a031916815260200191505b5094505050505060405180910390a4505050565b600080826040518082805190602001908083835b602083106106285780518252601f199092019160209182019101610609565b51815160209384036101000a600019018019909216911617905292019485525060405193849003019092205460ff1694935050505056fe5468652065766964656e636520686173206265656e20616c72656164792072656769737465726564a165627a7a723058205cf06a8a101e62ed5fb9fb4065edeead69101d09bb61d96218cae7cb0a3a5c810029",
  "source": "pragma solidity >=0.4.21 <0.6.0;\n\nimport \"./Evidencable.sol\";\n\n/// @title 用于实现证据上传功能的合约（基于上传至IPFS网络）\n/// @author Yu Zhang\ncontract UploadEvidences {\n\n    /// @notice 用于检查该内容是否已被用作证据\n    mapping(string => bool) private existingEvidence;\n\n    event UploadEvidenceEvent(address indexed registry, bytes32 indexed evidencedIdHash,\n        string evidencedHash, string evidenceHash, address indexed evidencer);\n\n    /// @notice 如果证据已被注册，返回\n    /// @param evidenceHash 作品支持证据哈希值，如IPFS的Base58哈希\n    function getEvidenceExistence(string memory evidenceHash) public view returns (bool) {\n        return existingEvidence[evidenceHash];\n    }\n\n    /// @notice 添加支持证据，证据哈希值为`evidenceHash`，注册者为`msg.sender`\n    /// @dev 更新包含此作品的证据计数\n    /// 证据作为事件存在于日志中\n    /// 注：evidenceHash在触发事件前用keccak256进行哈希化，所以可被索引\n    /// @param registry 证据提供者的地址\n    /// @param evidencedHash 已注册证据的哈希值\n    /// @param evidenceHash 作品支持证据哈希值，如IPFS的Base58哈希\n    function addEvidence(address registry, string memory evidencedHash, string memory evidenceHash) public {\n        require(!existingEvidence[evidenceHash], \"The evidence has been already registered\");\n        Evidencable(registry).addEvidence(evidencedHash);\n        existingEvidence[evidenceHash] = true;\n        emit UploadEvidenceEvent(registry, keccak256(abi.encodePacked(evidencedHash)),\n            evidencedHash, evidenceHash, msg.sender);\n    }\n}\n",
  "sourcePath": "/Users/hexarthur/Developer/uright/contracts/UploadEvidences.sol",
  "compiler": {
    "name": "solc",
    "version": "0.5.2+commit.1df8f40c.Emscripten.clang"
  },
  "schemaVersion": "3.0.9",
  "updatedAt": "2021-07-20T01:58:50.597Z",
  "devdoc": {
    "author": "Yu Zhang",
    "methods": {
      "addEvidence(address,string,string)": {
        "details": "更新包含此作品的证据计数 证据作为事件存在于日志中 注：evidenceHash在触发事件前用keccak256进行哈希化，所以可被索引",
        "params": {
          "evidenceHash": "作品支持证据哈希值，如IPFS的Base58哈希",
          "evidencedId": "The identifier used by the registry contract for the item receiving evidence",
          "registry": "证据提供者的地址",
          "evidencedHash": "已注册证据的哈希值"
        }
      },
      "getEvidenceExistence(string)": {
        "params": {
          "evidenceHash": "作品支持证据哈希值，如IPFS的Base58哈希"
        }
      }
    },
    "title": "用于实现证据上传功能的合约（基于上传至IPFS网络）"
  },
  "userdoc": {
    "methods": {
      "addEvidence(address,string,string)": {
        "notice": "添加支持证据，证据哈希值为`evidenceHash`，注册者为`msg.sender`"
      },
      "getEvidenceExistence(string)": {
        "notice": "如果证据已被注册，返回"
      }
    }
  }
}