{
  "contractName": "YouTubeEvidences",
  "abi": [
    {
      "constant": true,
      "inputs": [
        {
          "name": "",
          "type": "bytes32"
        }
      ],
      "name": "evidences",
      "outputs": [
        {
          "name": "registry",
          "type": "address"
        },
        {
          "name": "evidencer",
          "type": "address"
        },
        {
          "name": "evidencedId",
          "type": "string"
        },
        {
          "name": "videoId",
          "type": "string"
        },
        {
          "name": "isPending",
          "type": "bool"
        },
        {
          "name": "isVerified",
          "type": "bool"
        }
      ],
      "payable": false,
      "stateMutability": "view",
      "type": "function"
    },
    {
      "inputs": [
        {
          "name": "gasPrice",
          "type": "uint256"
        }
      ],
      "payable": false,
      "stateMutability": "nonpayable",
      "type": "constructor"
    },
    {
      "anonymous": false,
      "inputs": [
        {
          "indexed": false,
          "name": "evidenceId",
          "type": "bytes32"
        }
      ],
      "name": "OraclizeQuery",
      "type": "event"
    },
    {
      "anonymous": false,
      "inputs": [
        {
          "indexed": false,
          "name": "evidenceId",
          "type": "bytes32"
        },
        {
          "indexed": true,
          "name": "evidencedIdHash",
          "type": "bytes32"
        },
        {
          "indexed": false,
          "name": "evidencedHash",
          "type": "string"
        },
        {
          "indexed": false,
          "name": "videoId",
          "type": "string"
        },
        {
          "indexed": true,
          "name": "evidencer",
          "type": "address"
        },
        {
          "indexed": false,
          "name": "isVerified",
          "type": "bool"
        }
      ],
      "name": "YouTubeEvidenceEvent",
      "type": "event"
    },
    {
      "constant": false,
      "inputs": [
        {
          "name": "evidenceId",
          "type": "bytes32"
        },
        {
          "name": "properLinksCount",
          "type": "string"
        }
      ],
      "name": "__callback",
      "outputs": [],
      "payable": false,
      "stateMutability": "nonpayable",
      "type": "function"
    },
    {
      "constant": false,
      "inputs": [
        {
          "name": "_myid",
          "type": "bytes32"
        },
        {
          "name": "_result",
          "type": "string"
        },
        {
          "name": "_proof",
          "type": "bytes"
        }
      ],
      "name": "__callback",
      "outputs": [],
      "payable": false,
      "stateMutability": "nonpayable",
      "type": "function"
    },
    {
      "constant": false,
      "inputs": [
        {
          "name": "evidenceId",
          "type": "bytes32"
        },
        {
          "name": "properLinksCount",
          "type": "string"
        }
      ],
      "name": "processVerification",
      "outputs": [],
      "payable": false,
      "stateMutability": "nonpayable",
      "type": "function"
    },
    {
      "constant": false,
      "inputs": [
        {
          "name": "registry",
          "type": "address"
        },
        {
          "name": "evidencedId",
          "type": "string"
        },
        {
          "name": "videoId",
          "type": "string"
        },
        {
          "name": "gasLimit",
          "type": "uint256"
        }
      ],
      "name": "check",
      "outputs": [],
      "payable": true,
      "stateMutability": "payable",
      "type": "function"
    },
    {
      "constant": true,
      "inputs": [
        {
          "name": "gasLimit",
          "type": "uint256"
        }
      ],
      "name": "getPrice",
      "outputs": [
        {
          "name": "",
          "type": "uint256"
        }
      ],
      "payable": false,
      "stateMutability": "view",
      "type": "function"
    }
  ],
  "bytecode": "0x60806040523480156200001157600080fd5b506040516020806200280d833981018060405260208110156200003357600080fd5b5051620000498164010000000062000050810204565b506200084c565b600154600160a060020a031615806200008657506001546200008490600160a060020a03166401000000006200028d810204565b155b15620000a357620000a1600064010000000062000291810204565b505b600160009054906101000a9004600160a060020a0316600160a060020a03166338cc48316040518163ffffffff167c0100000000000000000000000000000000000000000000000000000000028152600401602060405180830381600087803b1580156200011057600080fd5b505af115801562000125573d6000803e3d6000fd5b505050506040513d60208110156200013c57600080fd5b5051600054600160a060020a039081169116146200020f57600160009054906101000a9004600160a060020a0316600160a060020a03166338cc48316040518163ffffffff167c0100000000000000000000000000000000000000000000000000000000028152600401602060405180830381600087803b158015620001c157600080fd5b505af1158015620001d6573d6000803e3d6000fd5b505050506040513d6020811015620001ed57600080fd5b505160008054600160a060020a031916600160a060020a039092169190911790555b60008054604080517fca6ad1e4000000000000000000000000000000000000000000000000000000008152600481018590529051600160a060020a039092169263ca6ad1e49260248084019382900301818387803b1580156200027157600080fd5b505af115801562000286573d6000803e3d6000fd5b5050505050565b3b90565b6000620002a6640100000000620002ac810204565b92915050565b600080620002d7731d3b2638a7cc9f2cb3d298a3da7a90b67e5506ed6401000000006200028d810204565b1115620003555760018054600160a060020a031916731d3b2638a7cc9f2cb3d298a3da7a90b67e5506ed17905560408051808201909152600b81527f6574685f6d61696e6e657400000000000000000000000000000000000000000060208201526200034c9064010000000062000791810204565b5060016200078e565b60006200037f73c03a2615d5efaf5f49f60b7bb6583eaec212fdf16401000000006200028d810204565b1115620003f45760018054600160a060020a03191673c03a2615d5efaf5f49f60b7bb6583eaec212fdf117905560408051808201909152600c81527f6574685f726f707374656e33000000000000000000000000000000000000000060208201526200034c9064010000000062000791810204565b60006200041e73b7a07bcf2ba2f2703b24c0691b5278999c59ac7e6401000000006200028d810204565b1115620004935760018054600160a060020a03191673b7a07bcf2ba2f2703b24c0691b5278999c59ac7e17905560408051808201909152600981527f6574685f6b6f76616e000000000000000000000000000000000000000000000060208201526200034c9064010000000062000791810204565b6000620004bd73146500cfd35b22e4a392fe0adc06de1a1368ed486401000000006200028d810204565b1115620005325760018054600160a060020a03191673146500cfd35b22e4a392fe0adc06de1a1368ed4817905560408051808201909152600b81527f6574685f72696e6b65627900000000000000000000000000000000000000000060208201526200034c9064010000000062000791810204565b60006200055c73a2998efd205fb9d4b4963afb70778d6354ad3a416401000000006200028d810204565b1115620005d15760018054600160a060020a03191673a2998efd205fb9d4b4963afb70778d6354ad3a4117905560408051808201909152600a81527f6574685f676f65726c690000000000000000000000000000000000000000000060208201526200034c9064010000000062000791810204565b6000620005fb734eba0c76b9463812622874fa56cc7a78dda1b0c56401000000006200028d810204565b1115620006705760018054600160a060020a031916734eba0c76b9463812622874fa56cc7a78dda1b0c517905560408051808201909152600781527f74656c736975730000000000000000000000000000000000000000000000000060208201526200034c9064010000000062000791810204565b60006200069a736f485c8bf6fc43ea212e93bbf8ce046c7f1cb4756401000000006200028d810204565b1115620006ce575060018054600160a060020a031916736f485c8bf6fc43ea212e93bbf8ce046c7f1cb4751781556200078e565b6000620006f87320e12a1f859b3feae5fb2a0a32c18f5a65555bbf6401000000006200028d810204565b11156200072c575060018054600160a060020a0319167320e12a1f859b3feae5fb2a0a32c18f5a65555bbf1781556200078e565b6000620007567351efaf4c8b3c9afbd5ab9f4bbc82784ab6ef8faa6401000000006200028d810204565b11156200078a575060018054600160a060020a0319167351efaf4c8b3c9afbd5ab9f4bbc82784ab6ef8faa1781556200078e565b5060005b90565b8051620007a6906002906020840190620007aa565b5050565b828054600181600116156101000203166002900490600052602060002090601f016020900481019282601f10620007ed57805160ff19168380011785556200081d565b828001600101855582156200081d579182015b828111156200081d57825182559160200191906001019062000800565b506200082b9291506200082f565b5090565b6200078e91905b808211156200082b576000815560010162000836565b611fb1806200085c6000396000f3fe6080604052600436106100585760e060020a600035046327dc297e811461005d57806338bbfa501461011957806383c34e571461025a578063a40edb0714610399578063d84c09de14610453578063e7572230146105a3575b600080fd5b34801561006957600080fd5b506101176004803603604081101561008057600080fd5b813591908101906040810160208201356401000000008111156100a257600080fd5b8201836020820111156100b457600080fd5b803590602001918460018302840111640100000000831117156100d657600080fd5b91908080601f0160208091040260200160405190810160405280939291908181526020018383808284376000920191909152509295506105df945050505050565b005b34801561012557600080fd5b506101176004803603606081101561013c57600080fd5b8135919081019060408101602082013564010000000081111561015e57600080fd5b82018360208201111561017057600080fd5b8035906020019184600183028401116401000000008311171561019257600080fd5b91908080601f01602080910402602001604051908101604052809392919081815260200183838082843760009201919091525092959493602081019350359150506401000000008111156101e557600080fd5b8201836020820111156101f757600080fd5b8035906020019184600183028401116401000000008311171561021957600080fd5b91908080601f016020809104026020016040519081016040528093929190818152602001838380828437600092019190915250929550610609945050505050565b6101176004803603608081101561027057600080fd5b600160a060020a03823516919081019060408101602082013564010000000081111561029b57600080fd5b8201836020820111156102ad57600080fd5b803590602001918460018302840111640100000000831117156102cf57600080fd5b91908080601f016020809104026020016040519081016040528093929190818152602001838380828437600092019190915250929594936020810193503591505064010000000081111561032257600080fd5b82018360208201111561033457600080fd5b8035906020019184600183028401116401000000008311171561035657600080fd5b91908080601f016020809104026020016040519081016040528093929190818152602001838380828437600092019190915250929550509135925061060e915050565b3480156103a557600080fd5b50610117600480360360408110156103bc57600080fd5b813591908101906040810160208201356401000000008111156103de57600080fd5b8201836020820111156103f057600080fd5b8035906020019184600183028401116401000000008311171561041257600080fd5b91908080601f01602080910402602001604051908101604052809392919081815260200183838082843760009201919091525092955061087a945050505050565b34801561045f57600080fd5b5061047d6004803603602081101561047657600080fd5b5035610be9565b6040518087600160a060020a0316600160a060020a0316815260200186600160a060020a0316600160a060020a0316815260200180602001806020018515151515815260200184151515158152602001838103835287818151815260200191508051906020019080838360005b838110156105025781810151838201526020016104ea565b50505050905090810190601f16801561052f5780820380516001836020036101000a031916815260200191505b50838103825286518152865160209182019188019080838360005b8381101561056257818101518382015260200161054a565b50505050905090810190601f16801561058f5780820380516001836020036101000a031916815260200191505b509850505050505050505060405180910390f35b3480156105af57600080fd5b506105cd600480360360208110156105c657600080fd5b5035610d45565b60408051918252519081900360200190f35b6105e7610e11565b600160a060020a031633146105fb57600080fd5b610605828261087a565b5050565b505050565b61064d6040805190810160405280600381526020017f55524c000000000000000000000000000000000000000000000000000000000081525082611004565b303110156106a6576040517f08c379a0000000000000000000000000000000000000000000000000000000008152600401808060200182810382526026815260200180611ef76026913960400191505060405180910390fd5b606061071c60606040519081016040528060258152602001611f1d602591398460806040519081016040528060448152602001611f4260449139876040805190810160405280600581526020017f27295d2929000000000000000000000000000000000000000000000000000000815250611279565b905060006107606040805190810160405280600381526020017f55524c000000000000000000000000000000000000000000000000000000000081525083856114ce565b6040805160c081018252600160a060020a03808a1682523360208084019182528385018b8152606085018b9052600160808601819052600060a08701819052888152600584529690962085518154908616600160a060020a0319918216178255935196810180549790951696909316959095179092559251805194955091936107ef9260028501920190611e5e565b506060820151805161080b916003840191602090910190611e5e565b5060808201516004909101805460a09093015115156101000261ff001992151560ff1990941693909317919091169190911790556040805182815290517f971b0866f91e6150f522277231ed5889fe16b939e5722a33b17a48b6fa0442cb9181900360200190a1505050505050565b60008281526005602052604090206004015460ff16151561089a57600080fd5b6000828152600560205260408120600401805460ff191690556108bc826118ce565b11156109e357600082815260056020908152604091829020805492517f51a94a5f000000000000000000000000000000000000000000000000000000008152600481019283526002918201805460001960018216156101000201169290920460248201819052600160a060020a03909416936351a94a5f939182916044909101908490801561098c5780601f106109615761010080835404028352916020019161098c565b820191906000526020600020905b81548152906001019060200180831161096f57829003601f168201915b505092505050600060405180830381600087803b1580156109ac57600080fd5b505af11580156109c0573d6000803e3d6000fd5b5050506000838152600560205260409020600401805461ff001916610100179055505b600082815260056020908152604091829020600180820154935160029283018054600160a060020a0390961695909491909101928392859260001991811615610100029190910116048015610a6f5780601f10610a4d576101008083540402835291820191610a6f565b820191906000526020600020905b815481529060010190602001808311610a5b575b505060408051808303601f19018152828252805160209182012060008981526005835283902060048101548a86526101009081900460ff168015156060880152608094870185815260028085018054600181161590950260001901909416049588018690529398507f2a53fed4e5febecf0501f58744cdffe16f4e1efb7241d4f06550ed0a516e791b97508b9691956003909301949093919283019060a084019087908015610b5f5780601f10610b3457610100808354040283529160200191610b5f565b820191906000526020600020905b815481529060010190602001808311610b4257829003601f168201915b5050838103825285546002600019610100600184161502019091160480825260209091019086908015610bd35780601f10610ba857610100808354040283529160200191610bd3565b820191906000526020600020905b815481529060010190602001808311610bb657829003601f168201915b5050965050505050505060405180910390a35050565b60056020908152600091825260409182902080546001808301546002808501805488516101009582161595909502600019011691909104601f8101879004870284018701909752868352600160a060020a0393841696939091169491929091830182828015610c995780601f10610c6e57610100808354040283529160200191610c99565b820191906000526020600020905b815481529060010190602001808311610c7c57829003601f168201915b5050505060038301805460408051602060026001851615610100026000190190941693909304601f8101849004840282018401909252818152949594935090830182828015610d295780601f10610cfe57610100808354040283529160200191610d29565b820191906000526020600020905b815481529060010190602001808311610d0c57829003601f168201915b5050506004909301549192505060ff8082169161010090041686565b60008054604080517f2ef3accc0000000000000000000000000000000000000000000000000000000081526024810185905260048101829052600360448201527f55524c000000000000000000000000000000000000000000000000000000000060648201529051600160a060020a0390921691632ef3accc91608480820192602092909190829003018186803b158015610ddf57600080fd5b505afa158015610df3573d6000803e3d6000fd5b505050506040513d6020811015610e0957600080fd5b505192915050565b600154600090600160a060020a03161580610e3e5750600154610e3c90600160a060020a03166118e1565b155b15610e4f57610e4d60006118e5565b505b600160009054906101000a9004600160a060020a0316600160a060020a03166338cc48316040518163ffffffff1660e060020a028152600401602060405180830381600087803b158015610ea257600080fd5b505af1158015610eb6573d6000803e3d6000fd5b505050506040513d6020811015610ecc57600080fd5b5051600054600160a060020a03908116911614610f8257600160009054906101000a9004600160a060020a0316600160a060020a03166338cc48316040518163ffffffff1660e060020a028152600401602060405180830381600087803b158015610f3657600080fd5b505af1158015610f4a573d6000803e3d6000fd5b505050506040513d6020811015610f6057600080fd5b505160008054600160a060020a031916600160a060020a039092169190911790555b6000809054906101000a9004600160a060020a0316600160a060020a031663c281d19e6040518163ffffffff1660e060020a02815260040160206040518083038186803b158015610fd257600080fd5b505afa158015610fe6573d6000803e3d6000fd5b505050506040513d6020811015610ffc57600080fd5b505190505b90565b600154600090600160a060020a03161580611031575060015461102f90600160a060020a03166118e1565b155b156110425761104060006118e5565b505b600160009054906101000a9004600160a060020a0316600160a060020a03166338cc48316040518163ffffffff1660e060020a028152600401602060405180830381600087803b15801561109557600080fd5b505af11580156110a9573d6000803e3d6000fd5b505050506040513d60208110156110bf57600080fd5b5051600054600160a060020a0390811691161461117557600160009054906101000a9004600160a060020a0316600160a060020a03166338cc48316040518163ffffffff1660e060020a028152600401602060405180830381600087803b15801561112957600080fd5b505af115801561113d573d6000803e3d6000fd5b505050506040513d602081101561115357600080fd5b505160008054600160a060020a031916600160a060020a039092169190911790555b60008054604080517f2ef3accc0000000000000000000000000000000000000000000000000000000081526024810186905260048101918252865160448201528651600160a060020a0390931693632ef3accc93889388939092839260649092019160208701918190849084905b838110156111fb5781810151838201526020016111e3565b50505050905090810190601f1680156112285780820380516001836020036101000a031916815260200191505b50935050505060206040518083038186803b15801561124657600080fd5b505afa15801561125a573d6000803e3d6000fd5b505050506040513d602081101561127057600080fd5b50519392505050565b6060808690506060869050606086905060608690506060869050606081518351855187518951010101016040519080825280601f01601f1916602001820160405280156112cd576020820181803883390190505b509050806000805b88518110156113335788818151811015156112ec57fe5b90602001015160f860020a900460f860020a02838380600101945081518110151561131357fe5b906020010190600160f860020a031916908160001a9053506001016112d5565b5060005b875181101561139557878181518110151561134e57fe5b90602001015160f860020a900460f860020a02838380600101945081518110151561137557fe5b906020010190600160f860020a031916908160001a905350600101611337565b5060005b86518110156113f75786818151811015156113b057fe5b90602001015160f860020a900460f860020a0283838060010194508151811015156113d757fe5b906020010190600160f860020a031916908160001a905350600101611399565b5060005b855181101561145957858181518110151561141257fe5b90602001015160f860020a900460f860020a02838380600101945081518110151561143957fe5b906020010190600160f860020a031916908160001a9053506001016113fb565b5060005b84518110156114bb57848181518110151561147457fe5b90602001015160f860020a900460f860020a02838380600101945081518110151561149b57fe5b906020010190600160f860020a031916908160001a90535060010161145d565b50909d9c50505050505050505050505050565b600154600090600160a060020a031615806114fb57506001546114f990600160a060020a03166118e1565b155b1561150c5761150a60006118e5565b505b600160009054906101000a9004600160a060020a0316600160a060020a03166338cc48316040518163ffffffff1660e060020a028152600401602060405180830381600087803b15801561155f57600080fd5b505af1158015611573573d6000803e3d6000fd5b505050506040513d602081101561158957600080fd5b5051600054600160a060020a0390811691161461163f57600160009054906101000a9004600160a060020a0316600160a060020a03166338cc48316040518163ffffffff1660e060020a028152600401602060405180830381600087803b1580156115f357600080fd5b505af1158015611607573d6000803e3d6000fd5b505050506040513d602081101561161d57600080fd5b505160008054600160a060020a031916600160a060020a039092169190911790555b60008054604080517f2ef3accc0000000000000000000000000000000000000000000000000000000081526024810186905260048101918252875160448201528751600160a060020a0390931692632ef3accc928992889282916064019060208601908083838c5b838110156116bf5781810151838201526020016116a7565b50505050905090810190601f1680156116ec5780820380516001836020036101000a031916815260200191505b50935050505060206040518083038186803b15801561170a57600080fd5b505afa15801561171e573d6000803e3d6000fd5b505050506040513d602081101561173457600080fd5b50519050670de0b6b3a76400003a8402018111156117565750600090506118c7565b600080546040517fc51be90f0000000000000000000000000000000000000000000000000000000081526004810183815260648201879052608060248301908152895160848401528951600160a060020a039094169463c51be90f94879491938c938c938c93604482019160a4019060208801908083838c5b838110156117e75781810151838201526020016117cf565b50505050905090810190601f1680156118145780820380516001836020036101000a031916815260200191505b50838103825285518152855160209182019187019080838360005b8381101561184757818101518382015260200161182f565b50505050905090810190601f1680156118745780820380516001836020036101000a031916815260200191505b5096505050505050506020604051808303818588803b15801561189657600080fd5b505af11580156118aa573d6000803e3d6000fd5b50505050506040513d60208110156118c157600080fd5b50519150505b9392505050565b60006118db8260006118ef565b92915050565b3b90565b60006118db611a1d565b6000828180805b8351811015611a01576030848281518110151561190f57fe5b90602001015160f860020a900460f860020a0260f860020a900460ff161015801561196557506039848281518110151561194557fe5b90602001015160f860020a900460f860020a0260f860020a900460ff1611155b156119c15781156119845785151561197c57611a01565b600019909501945b600a830292506030848281518110151561199a57fe5b90602001015160f860020a900460f860020a0260f860020a900460ff1603830192506119f9565b83818151811015156119cf57fe5b90602001015160f860020a900460f860020a0260f860020a900460ff16602e14156119f957600191505b6001016118f6565b506000851115611a145784600a0a820291505b50949350505050565b600080611a3d731d3b2638a7cc9f2cb3d298a3da7a90b67e5506ed6118e1565b1115611aae5760018054600160a060020a031916731d3b2638a7cc9f2cb3d298a3da7a90b67e5506ed17905560408051808201909152600b81527f6574685f6d61696e6e65740000000000000000000000000000000000000000006020820152611aa690611e4f565b506001611001565b6000611acd73c03a2615d5efaf5f49f60b7bb6583eaec212fdf16118e1565b1115611b365760018054600160a060020a03191673c03a2615d5efaf5f49f60b7bb6583eaec212fdf117905560408051808201909152600c81527f6574685f726f707374656e3300000000000000000000000000000000000000006020820152611aa690611e4f565b6000611b5573b7a07bcf2ba2f2703b24c0691b5278999c59ac7e6118e1565b1115611bbe5760018054600160a060020a03191673b7a07bcf2ba2f2703b24c0691b5278999c59ac7e17905560408051808201909152600981527f6574685f6b6f76616e00000000000000000000000000000000000000000000006020820152611aa690611e4f565b6000611bdd73146500cfd35b22e4a392fe0adc06de1a1368ed486118e1565b1115611c465760018054600160a060020a03191673146500cfd35b22e4a392fe0adc06de1a1368ed4817905560408051808201909152600b81527f6574685f72696e6b6562790000000000000000000000000000000000000000006020820152611aa690611e4f565b6000611c6573a2998efd205fb9d4b4963afb70778d6354ad3a416118e1565b1115611cce5760018054600160a060020a03191673a2998efd205fb9d4b4963afb70778d6354ad3a4117905560408051808201909152600a81527f6574685f676f65726c69000000000000000000000000000000000000000000006020820152611aa690611e4f565b6000611ced734eba0c76b9463812622874fa56cc7a78dda1b0c56118e1565b1115611d565760018054600160a060020a031916734eba0c76b9463812622874fa56cc7a78dda1b0c517905560408051808201909152600781527f74656c73697573000000000000000000000000000000000000000000000000006020820152611aa690611e4f565b6000611d75736f485c8bf6fc43ea212e93bbf8ce046c7f1cb4756118e1565b1115611da7575060018054600160a060020a031916736f485c8bf6fc43ea212e93bbf8ce046c7f1cb475178155611001565b6000611dc67320e12a1f859b3feae5fb2a0a32c18f5a65555bbf6118e1565b1115611df8575060018054600160a060020a0319167320e12a1f859b3feae5fb2a0a32c18f5a65555bbf178155611001565b6000611e177351efaf4c8b3c9afbd5ab9f4bbc82784ab6ef8faa6118e1565b1115611e49575060018054600160a060020a0319167351efaf4c8b3c9afbd5ab9f4bbc82784ab6ef8faa178155611001565b50600090565b80516106059060029060208401905b828054600181600116156101000203166002900490600052602060002090601f016020900481019282601f10611e9f57805160ff1916838001178555611ecc565b82800160010185558215611ecc579182015b82811115611ecc578251825591602001919060010190611eb1565b50611ed8929150611edc565b5090565b61100191905b80821115611ed85760008155600101611ee256fe4e6f7420656e6f7567682066756e647320746f2072756e204f7261636c697a6520717565727968746d6c2868747470733a2f2f7777772e796f75747562652e636f6d2f77617463683f763d292e787061746828636f756e74282f2f6469765b636f6e7461696e73284069642c276465736372697074696f6e27295d2f2f615b636f6e7461696e732840687265662c27a165627a7a72305820887d11e80d7c1ab55ea79a5a60d53fced7a33cef46331f10fe9012366b6adaae0029",
  "source": "pragma solidity >=0.4.21 <0.6.0;\n\nimport \"./oraclizeAPI.sol\";\nimport \"./Evidencable.sol\";\n\ncontract YouTubeEvidences is usingOraclize {\n    string private constant HTML = \"html(https://www.youtube.com/watch?v=\";\n    string private constant XPATH = \").xpath(count(//div[contains(@id,'description')]//a[contains(@href,'\";\n\n    mapping(bytes32=>YouTubeEvidence) public evidences;\n\n    struct YouTubeEvidence {\n        address registry;\n        address evidencer;\n        string evidencedId;\n        string videoId;\n        bool isPending;\n        bool isVerified;\n    }\n\n    event OraclizeQuery(bytes32 evidenceId);\n\n    event YouTubeEvidenceEvent(bytes32 evidenceId, bytes32 indexed evidencedIdHash,\n        string evidencedHash, string videoId, address indexed evidencer, bool isVerified);\n\n    constructor(uint gasPrice) public {\n        oraclize_setCustomGasPrice(gasPrice);\n    }\n\n    /// @notice Callback for the oracle for query `evidenceId` including the `properLinksCount`\n    /// amount of links to the manifestation hash from the YouTube video description.\n    /// @param evidenceId The identifier of the oracle query\n    /// @param properLinksCount The amount of proper links in the YouTube video description\n    function __callback(bytes32 evidenceId, string memory properLinksCount) public {\n      require(msg.sender == oraclize_cbAddress());\n\n      processVerification(evidenceId, properLinksCount);\n    }\n\n    /// @notice Process the oracle callback for query `evidenceId` to check the `properLinksCount`\n    /// amount of links to the manifestation hash from the YouTube video description.\n    /// @dev There should be at least one proper link for the YouTubeEvidence to be verified.\n    /// @param evidenceId The identifier of the oracle query\n    /// @param properLinksCount The amount of proper links in the YouTube video description\n    function processVerification(bytes32 evidenceId, string memory properLinksCount) public {\n      require(evidences[evidenceId].isPending);\n\n      evidences[evidenceId].isPending = false;\n      if (parseInt(properLinksCount) > 0) {\n        Evidencable(evidences[evidenceId].registry).addEvidence(evidences[evidenceId].evidencedId);\n        evidences[evidenceId].isVerified = true;\n      }\n      emit YouTubeEvidenceEvent(evidenceId,\n          keccak256(abi.encodePacked(evidences[evidenceId].evidencedId)),\n          evidences[evidenceId].evidencedId, evidences[evidenceId].videoId,\n          evidences[evidenceId].evidencer, evidences[evidenceId].isVerified);\n    }\n\n    /// @notice Check using an oracle if the YouTube `videoId` is linked to the manifestation with\n    /// identifier `evidencedId` in the registry with address `registry`, optimizing the oracle\n    /// call for gas limit `gasLimit`.\n    /// @dev The oracle checks if the YouTube page for the video contains a link in its description\n    /// pointing to the manifestation hash.\n    /// @param registry The address of the contract holding the items receiving evidence\n    /// @param evidencedId The identifier used by the registry contract for the item receiving evidence\n    /// @param videoId The identifier of a YouTube video to be checked\n    /// @param gasLimit The gas limit required by the Oraclize callback __callback(...)\n    function check(address registry, string memory evidencedId, string memory videoId, uint gasLimit) public payable {\n        require(address(this).balance >= oraclize_getPrice(\"URL\", gasLimit), \"Not enough funds to run Oraclize query\");\n\n        string memory query = strConcat(HTML, videoId, XPATH, evidencedId, \"')]))\");\n        bytes32 evidenceId = oraclize_query(\"URL\", query, gasLimit);\n        evidences[evidenceId] = YouTubeEvidence(registry, msg.sender, evidencedId, videoId, true, false);\n        emit OraclizeQuery(evidenceId);\n    }\n\n    /// @notice Get the Oraclize call price for the input gas limit `gasLimit`.\n    /// @dev Used to show to the user the requested price for the Oraclize call.\n    /// @param gasLimit Compute the call price based on the expected gas limit required by the\n    /// Oraclize callback, recommended 100M gas as per tests in test/youtubeevidences.test.js\n    function getPrice(uint gasLimit) public view returns (uint) {\n        return oraclize.getPrice(\"URL\", gasLimit);\n    }\n}\n",
  "sourcePath": "/Users/hexarthur/Developer/uright/contracts/YouTubeEvidences.sol",
  "compiler": {
    "name": "solc",
    "version": "0.5.2+commit.1df8f40c.Emscripten.clang"
  },
  "schemaVersion": "3.0.9",
  "updatedAt": "2021-02-27T03:58:22.657Z",
  "devdoc": {
    "methods": {
      "__callback(bytes32,string)": {
        "params": {
          "evidenceId": "The identifier of the oracle query",
          "properLinksCount": "The amount of proper links in the YouTube video description"
        }
      },
      "check(address,string,string,uint256)": {
        "details": "The oracle checks if the YouTube page for the video contains a link in its description pointing to the manifestation hash.",
        "params": {
          "evidencedId": "The identifier used by the registry contract for the item receiving evidence",
          "gasLimit": "The gas limit required by the Oraclize callback __callback(...)",
          "registry": "The address of the contract holding the items receiving evidence",
          "videoId": "The identifier of a YouTube video to be checked"
        }
      },
      "getPrice(uint256)": {
        "details": "Used to show to the user the requested price for the Oraclize call.",
        "params": {
          "gasLimit": "Compute the call price based on the expected gas limit required by the Oraclize callback, recommended 100M gas as per tests in test/youtubeevidences.test.js"
        }
      },
      "processVerification(bytes32,string)": {
        "details": "There should be at least one proper link for the YouTubeEvidence to be verified.",
        "params": {
          "evidenceId": "The identifier of the oracle query",
          "properLinksCount": "The amount of proper links in the YouTube video description"
        }
      }
    }
  },
  "userdoc": {
    "methods": {
      "__callback(bytes32,string)": {
        "notice": "Callback for the oracle for query `evidenceId` including the `properLinksCount` amount of links to the manifestation hash from the YouTube video description."
      },
      "check(address,string,string,uint256)": {
        "notice": "Check using an oracle if the YouTube `videoId` is linked to the manifestation with identifier `evidencedId` in the registry with address `registry`, optimizing the oracle call for gas limit `gasLimit`."
      },
      "getPrice(uint256)": {
        "notice": "Get the Oraclize call price for the input gas limit `gasLimit`."
      },
      "processVerification(bytes32,string)": {
        "notice": "Process the oracle callback for query `evidenceId` to check the `properLinksCount` amount of links to the manifestation hash from the YouTube video description."
      }
    }
  }
}